:100000000C942A000C943F000C943F000C943F0089
:100010000C943F000C943F000C943F000C943F0064
:100020000C943F000C943F000C943F000C943F0054
:100030000C943F000C943F000C943F000C943F0044
:100040000C943F000C943F000C943F000C943F0034
:100050000C943F0011241FBECFE5D8E0DEBFCDBF1A
:1000600010E0A0E6B0E0E0E6F0E202C005900D92FC
:10007000AC38B107D9F70E94880C0C942E100C9460
:100080000000EF92FF920F931F937B018C0120E001
:1000900030E040E05FE40E94410388238CF0C80117
:1000A000B70120E030E040E05FE40E94B9010E9427
:1000B000A1039B01AC01205030404040504806C095
:1000C000C801B7010E94A1039B01AC01B901CA019B
:1000D0001F910F91FF90EF900895A0E0B0E0E3E74B
:1000E000F0E00C94F70FDC012B01FA019C919230A7
:1000F00008F439C1EB018881823008F433C19430AF
:1001000069F4843009F02FC111969C91119789816F
:10011000981709F428C1A0E6B0E025C1843009F49D
:1001200021C18230A9F4923009F01DC19A01AD01BC
:1001300088E0EA010990AE01E90109929E0181502F
:10014000C1F7E201898111969C918923818308C1BD
:10015000923009F407C112962D903C901397EB0151
:100160008A819B811496AD90BD90CD90DC901797BD
:10017000EC80FD800E811F819101281B390BB90194
:1001800037FF04C066277727621B730B6032710547
:100190000CF061C0121613066CF537014801062EEB
:1001A00004C096948794779467940A94D2F721E0D8
:1001B00030E040E050E004C0220F331F441F551FC1
:1001C0006A95D2F721503040404050402E213F21C7
:1001D00040235123211531054105510521F021E02E
:1001E00030E040E050E079018A01E628F72808294C
:1001F00019293CC0232BD1F1260E371E35014601AB
:10020000062E04C096948794779467940A94D2F744
:1002100021E030E040E050E004C0220F331F441FD3
:10022000551F6A95D2F721503040404050402A2156
:100230003B214C215D21211531054105510521F05E
:1002400021E030E040E050E059016A01A628B728DB
:10025000C828D9280BC0821593052CF01C01AA24AC
:10026000BB24650103C0EE24FF24870111969C91F5
:10027000D20111968C91981709F445C0992339F051
:10028000A80197012A193B094C095D0906C0A6017E
:1002900095012E193F09400B510B57FD08C01182E3
:1002A0003382228224833583468357831DC081E0B5
:1002B00081833382228288279927DC01821B930B5A
:1002C000A40BB50B84839583A683B7830DC0220F3F
:1002D000331F441F551F24833583468357838281F0
:1002E000938101979383828324813581468157814D
:1002F000DA01C9010197A109B1098F5F9F4FAF4F83
:10030000BF4328F30BC0918333822282EA0CFB1C8B
:100310000C1D1D1DE482F5820683178383E0808314
:10032000248135814681578157FF1AC0C901AA2708
:1003300097FDA095BA2F81709070A070B0705695FF
:10034000479537952795822B932BA42BB52B848328
:100350009583A683B7838281938101969383828359
:10036000DF0101C0D201CD01CDB7DEB7E2E10C94CF
:100370001310A0E2B0E0EFEBF1E00C9403106983FE
:100380007A838B839C832D833E834F835887E9E058
:10039000EE2EF12CEC0EFD1ECE010196B7010E944F
:1003A000CA048E010F5E1F4FCE010596B8010E9450
:1003B000CA048A8991E089278A8BC701B801AE01F6
:1003C000475E5F4F0E946D000E94F503A096E6E035
:1003D0000C941F10A0E2B0E0E0EFF1E00C940310E9
:1003E00069837A838B839C832D833E834F835887D5
:1003F000F9E0EF2EF12CEC0EFD1ECE010196B701B7
:100400000E94CA048E010F5E1F4FCE010596B801EF
:100410000E94CA04C701B801AE01475E5F4F0E9447
:100420006D000E94F503A096E6E00C941F10A0E278
:10043000B0E0EDE1F2E00C94F70F69837A838B83EF
:100440009C832D833E834F835887CE010196BE0146
:10045000675F7F4F0E94CA04CE010596BE016F5EA2
:100460007F4F0E94CA049985923088F08989823032
:10047000C8F0943019F4823051F404C0843029F467
:10048000923081F480E690E0C6C0923049F420E0DA
:100490009A858A89981321E02A87CE010996BBC0E4
:1004A000823049F420E09A858A89981321E02A8BCA
:1004B000CE014196B0C02D843E844F8458886D880B
:1004C0007E888F88988CEE24FF248701AA24BB2481
:1004D000650140E050E060E070E0E0E0F0E0C10184
:1004E00081709070892BE9F0E60CF71C081D191D2E
:1004F0009A01AB012A0D3B1D4C1D5D1D80E090E073
:10050000A0E0B0E0E614F7040805190520F481E046
:1005100090E0A0E0B0E0BA01A901480F591F6A1F9E
:100520007B1FAA0CBB1CCC1CDD1C97FE08C081E005
:1005300090E0A0E0B0E0A82AB92ACA2ADB2A3196C6
:10054000E032F10549F0660C771C881C991C569422
:10055000479437942794C3CFFA85EA892B893C893D
:100560008B859C85280F391F2E5F3F4F17C0CA010E
:1005700081709070892B61F016950795F794E79438
:1005800080E090E0A0E0B0E8E82AF92A0A2B1B2BD3
:1005900076956795579547952F5F3F4F77FDE7CF46
:1005A0000CC0440F551F661F771F17FD4160EE0CEE
:1005B000FF1C001F111F21503040403090E05907B0
:1005C00090E0690790E4790760F32B8F3C8FDB01A3
:1005D000CA018F779070A070B07080349105A1052A
:1005E000B10561F447FD0AC0E114F10401051105EC
:1005F00029F0405C5F4F6F4F7F4F40781A8EFE1797
:1006000011F081E08A8F4D8F5E8F6F8F78A383E02A
:10061000898FCE0149960E94F503A096E2E10C94E1
:100620001310A8E1B0E0E7E1F3E00C940310698354
:100630007A838B839C832D833E834F83588789E005
:10064000E82EF12CEC0EFD1ECE010196B7010E94A2
:10065000CA048E010F5E1F4FCE010596B8010E949D
:10066000CA048985823040F08989823028F0C70128
:10067000B8010E94420501C08FEF6896E6E00C9435
:100680001F10A8E1B0E0E7E4F3E00C9403106983E5
:100690007A838B839C832D833E834F83588789E0A5
:1006A000E82EF12CEC0EFD1ECE010196B7010E9442
:1006B000CA048E010F5E1F4FCE010596B8010E943D
:1006C000CA048985823040F08989823028F0C701C8
:1006D000B8010E94420501C08FEF6896E6E00C94D5
:1006E0001F10A8E1B0E0E7E7F3E00C940310698382
:1006F0007A838B839C832D833E834F83588789E045
:10070000E82EF12CEC0EFD1ECE010196B7010E94E1
:10071000CA048E010F5E1F4FCE010596B8010E94DC
:10072000CA048985823040F08989823028F0C70167
:10073000B8010E94420501C081E06896E6E00C9491
:100740001F10ACE0B0E0E7EAF3E00C940710698317
:100750007A838B839C83CE010196BE016B5F7F4FB2
:100760000E94CA048D81823061F1823050F1843060
:1007700021F48E81882351F12EC02F81388537FDD9
:1007800020C06E812F3131051CF06623F9F023C0A3
:100790008EE190E0821B930B29853A854B855C8521
:1007A00004C056954795379527958A95D2F76623C5
:1007B000B1F050954095309521953F4F4F4F5F4F89
:1007C0000EC020E030E040E050E009C02FEF3FEFE6
:1007D0004FEF5FE704C020E030E040E050E8B901AF
:1007E000CA012C96E2E00C942310DF92EF92FF9264
:1007F0000F931F93FC01E480F58006811781D1805F
:100800008081823048F480E090E0A0E1B0E0E82A06
:10081000F92A0A2B1B2BA5C0843009F49FC0823013
:1008200021F4EE24FF24870105C0E114F104010541
:10083000110519F4E0E0F0E096C0628173819FEF4A
:10084000623879070CF05BC022E83FEF261B370BBC
:100850002A3131052CF020E030E040E050E02AC0A1
:10086000B801A701022E04C0769567955795479564
:100870000A94D2F781E090E0A0E0B0E004C0880FD5
:10088000991FAA1FBB1F2A95D2F70197A109B10989
:100890008E219F21A023B1230097A105B10521F04E
:1008A00081E090E0A0E0B0E09A01AB01282B392B69
:1008B0004A2B5B2BDA01C9018F779070A070B07062
:1008C00080349105A105B10539F427FF09C0205CEA
:1008D0003F4F4F4F5F4F04C0215C3F4F4F4F5F4F23
:1008E000E0E0F0E02030A0E03A07A0E04A07A0E412
:1008F0005A0710F0E1E0F0E079018A0127C0603882
:10090000710564F5FB01E158FF4FD801C7018F77EE
:100910009070A070B07080349105A105B10539F4D4
:10092000E7FE0DC080E490E0A0E0B0E004C08FE3FB
:1009300090E0A0E0B0E0E80EF91E0A1F1B1F17FFB1
:1009400005C016950795F794E794319687E01695BC
:100950000795F794E7948A95D1F705C0EE24FF2414
:100960008701EFEFF0E06E2F679566276795902F70
:100970009F77D794DD24D7948E2F8695492F462BC9
:10098000582F5D29B701CA011F910F91FF90EF9079
:10099000DF900895FC01DB01408151812281622FAB
:1009A0006F7770E0221F2227221F9381892F880FE3
:1009B000822B282F30E0991F9927991F11969C931D
:1009C000119721153105A9F54115510561057105ED
:1009D00011F482E037C082E89FEF13969C938E93C8
:1009E00012979A01AB0167E0220F331F441F551F76
:1009F0006A95D1F783E08C930DC0220F331F441FFB
:100A0000551F12968D919C911397019713969C9365
:100A10008E931297203080E0380780E0480780E40A
:100A2000580758F314962D933D934D935C93179765
:100A300008952F3F310579F4411551056105710580
:100A400019F484E08C93089564FF03C081E08C93D3
:100A500012C01C9210C02F57304013963C932E9317
:100A6000129783E08C9387E0440F551F661F771F12
:100A70008A95D1F7706414964D935D936D937C9332
:100A8000179708951F93DC01FB019C91923008F4A5
:100A900047C08081823008F443C0943051F41196ED
:100AA0001C91843099F58181682F70E0611B710978
:100AB0003FC0843021F0923031F48230B9F181812D
:100AC000882389F12DC011961C9111978230F1F085
:100AD00081811817D9F412962D913C911397828138
:100AE00093818217930794F028173907BCF0149666
:100AF0008D919D910D90BC91A02D248135814681D1
:100B00005781281739074A075B0718F4112341F06A
:100B10000AC082179307A407B50740F4112319F000
:100B200061E070E005C06FEF7FEF02C060E070E051
:100B3000CB011F910895DF93CF93CDB7DEB72897F0
:100B40000FB6F894DEBF0FBECDBF8A836B834C8394
:100B500081E089838B81883010F01982F0C08C810C
:100B6000882309F076C08A81282F30E038872F83C8
:100B70008F8198858130910559F12F8138852230F8
:100B800031052CF48F819885009769F060C02F8122
:100B900038852230310589F18F8198858330910520
:100BA00009F440C054C0ABE3B0E0EBE3F0E0808177
:100BB000482F8B81282F30E081E090E0022E02C088
:100BC000880F991F0A94E2F7809584238C93B7C00D
:100BD000A8E3B0E0E8E3F0E08081482F8B81282F84
:100BE00030E081E090E0022E02C0880F991F0A9445
:100BF000E2F7809584238C93A2C0A5E3B0E0E5E3FF
:100C0000F0E08081482F8B81282F30E081E090E058
:100C1000022E02C0880F991F0A94E2F78095842360
:100C20008C938DC0A2E3B0E0E2E3F0E08081482F36
:100C30008B81282F30E081E090E0022E02C0880FE7
:100C4000991F0A94E2F7809584238C9378C01982C7
:100C500076C08C81813009F071C08A81282F30E004
:100C60003E832D838D819E818130910549F12D81B7
:100C70003E81223031052CF48D819E81009761F0F8
:100C80005BC02D813E812230310571F18D819E81C5
:100C900083309105E9F150C0ABE3B0E0EBE3F0E065
:100CA0008081482F8B81282F30E081E090E0022E58
:100CB00002C0880F991F0A94E2F7842B8C933FC0DF
:100CC000A8E3B0E0E8E3F0E08081482F8B81282F93
:100CD00030E081E090E0022E02C0880F991F0A9454
:100CE000E2F7842B8C932BC0A5E3B0E0E5E3F0E0C2
:100CF0008081482F8B81282F30E081E090E0022E08
:100D000002C0880F991F0A94E2F7842B8C9317C0B6
:100D1000A2E3B0E0E2E3F0E08081482F8B81282F4E
:100D200030E081E090E0022E02C0880F991F0A9403
:100D3000E2F7842B8C9303C0198201C01982898148
:100D400028960FB6F894DEBF0FBECDBFCF91DF91CE
:100D50000895DF93CF9300D000D00F92CDB7DEB7C8
:100D60008A836B8381E089838A81282F30E03D83E9
:100D70002C838C819D8181309105D1F02C813D8126
:100D8000223031052CF48C819D81009761F01FC0C9
:100D90002C813D812230310581F08C819D81833011
:100DA000910581F014C0EBE3F0E08B81808310C0EB
:100DB000E8E3F0E08B8180830BC0E5E3F0E08B811A
:100DC000808306C0E2E3F0E08B81808301C019825A
:100DD00089810F900F900F900F900F90CF91DF911E
:100DE0000895DF93CF93CDB7DEB727970FB6F8946A
:100DF000DEBF0FBECDBF8A836B835D834C8381E0F2
:100E000089838C819D81009709F473C08A81282F82
:100E100030E03F832E834E815F814130510559F18F
:100E20008E819F818230910534F42E813F8121157E
:100E3000310569F05CC04E815F814230510579F126
:100E40008E819F818330910509F43DC050C0E9E354
:100E5000F0E08081282F30E08B81882F90E0A9017D
:100E600002C0559547958A95E2F7CA018170EC81D9
:100E7000FD81808340C0E6E3F0E08081282F30E0F0
:100E80008B81882F90E0A90102C0559547958A95DE
:100E9000E2F7CA018170EC81FD8180832CC0E3E31D
:100EA000F0E08081282F30E08B81882F90E0A9012D
:100EB00002C0559547958A95E2F7CA018170EC8189
:100EC000FD81808318C0E0E3F0E08081282F30E0CE
:100ED0008B81882F90E0A90102C0559547958A958E
:100EE000E2F7CA018170EC81FD81808304C0198220
:100EF00002C082E08983898127960FB6F894DEBF0D
:100F00000FBECDBFCF91DF910895DF93CF93CDB7C3
:100F1000DEB7A2970FB6F894DEBF0FBECDBF8FEF3E
:100F20008B83CE0105969F8F8E8FE8E6F0E0F9A3C4
:100F3000E8A3F0E1FAA3E8A1F9A1008088A199A1B2
:100F4000019699A388A3EE8DFF8D00828E8D9F8DD3
:100F500001969F8F8E8F9AA191509AA3EAA1EE23BA
:100F600051F71D8A81E08E8B82E08F8B83E0888F22
:100F700084E0898F85E08A8F86E08B8F87E08C8F75
:100F80001A8268C08A81282F30E0CE014996FC0180
:100F9000E20FF31F908182E0692F40E00E949B05E1
:100FA000198243C08981282F30E0CE014596FC018B
:100FB000E20FF31F90819E012C5F3F4F82E0692F6B
:100FC000A9010E94F1068C81882361F58981282F6F
:100FD00030E08A81482F50E0220F331F220F331F49
:100FE000CE010196820F931F840F951FFC0134964A
:100FF00080818B8311C08981282F30E0CE014596F6
:10100000FC01E20FF31F90819E012C5F3F4F82E0B5
:10101000692FA9010E94F1068C81882361F3FB816D
:10102000FD8F1EC089818F5F89838981843008F498
:10103000B9CF8A81282F30E0CE014996FC01E20F1A
:10104000F31F908182E0692F41E00E949B058A8115
:101050008F5F8A838A81843008F494CF8B818D8F4F
:101060008D8DA2960FB6F894DEBF0FBECDBFCF9187
:10107000DF910895DF93CF93CDB7DEB72F970FB6EB
:10108000F894DEBF0FBECDBF8F8781E061E040E006
:101090000E949B0581E060E040E00E949B0580E0AB
:1010A0006F850E94A90681E062E041E00E949B05F5
:1010B00080E090E0A0E0B0E48B879C87AD87BE879E
:1010C0006B857C858D859E8520E030E04AE755E480
:1010D0000E941702DC01CB018F839887A987BA870A
:1010E0006F81788589859A8520E030E040E85FE36C
:1010F0000E94710388232CF481E090E09E838D830D
:101100003FC06F81788589859A8520E03FEF4FE762
:1011100057E40E94110318164CF56B857C858D856C
:101120009E8520E030E040E251E40E941702DC019D
:10113000CB01BC01CD010E944100DC01CB019E83AB
:101140008D830FC080E991E09C838B838B819C8190
:101150000197F1F79C838B838D819E8101979E83FC
:101160008D838D819E81009769F714C06F8178858A
:1011700089859A850E944100DC01CB019E838D8385
:101180008D819E819A83898389819A810197F1F764
:101190009A83898381E062E040E00E949B052F965C
:1011A0000FB6F894DEBF0FBECDBFCF91DF9108958B
:1011B000DF93CF93CDB7DEB72F970FB6F894DEBF8E
:1011C0000FBECDBF8F8781E061E040E00E949B05AC
:1011D00081E060E041E00E949B0580E06F850E9415
:1011E000A90681E062E041E00E949B0580E090E07A
:1011F000A0E0B0E48B879C87AD87BE876B857C853C
:101200008D859E8520E030E04AE755E40E94170274
:10121000DC01CB018F839887A987BA876F81788596
:1012200089859A8520E030E040E85FE30E94710301
:1012300088232CF481E090E09E838D833FC06F81F2
:10124000788589859A8520E03FEF4FE757E40E9433
:10125000110318164CF56B857C858D859E8520E0E5
:1012600030E040E251E40E941702DC01CB01BC01F6
:10127000CD010E944100DC01CB019E838D830FC014
:1012800080E991E09C838B838B819C810197F1F7AE
:101290009C838B838D819E8101979E838D838D811D
:1012A0009E81009769F714C06F81788589859A853A
:1012B0000E944100DC01CB019E838D838D819E8144
:1012C0009A83898389819A810197F1F79A83898327
:1012D00081E062E040E00E949B052F960FB6F894F3
:1012E000DEBF0FBECDBFCF91DF910895DF93CF93C7
:1012F000CDB7DEB7E8970FB6F894DEBF0FBECDBF0F
:1013000080E090E0A0E2B2E48DAB9EABAFABB8AFB3
:101310006DA97EA98FA998AD20E030E04AE755E499
:101320000E941702DC01CB0189AB9AABABABBCAB23
:1013300069A97AA98BA99CA920E030E040E85FE385
:101340000E94710388232CF481E090E098AB8FA772
:101350003FC069A97AA98BA99CA920E03FEF4FE77C
:1013600057E40E94110318164CF56DA97EA98FA9A8
:1013700098AD20E030E040E251E40E941702DC0129
:10138000CB01BC01CD010E944100DC01CB0198AB37
:101390008FA70FC080E991E09EA78DA78DA59EA580
:1013A0000197F1F79EA78DA78FA598A9019798ABF4
:1013B0008FA78FA598A9009769F714C069A97AA982
:1013C0008BA99CA90E944100DC01CB0198AB8FA79F
:1013D0008FA598A99CA78BA78BA59CA50197F1F732
:1013E0009CA78BA788E30E943A0880E090E0A0E8E1
:1013F000BFE38FA398A7A9A7BAA76FA178A589A5CE
:101400009AA520E030E04AE755E40E941702DC018B
:10141000CB018BA39CA3ADA3BEA36BA17CA18DA18B
:101420009EA120E030E040E85FE30E947103882342
:101430002CF481E090E09AA389A33FC06BA17CA12A
:101440008DA19EA120E03FEF4FE757E40E941103DA
:1014500018164CF56FA178A589A59AA520E030E073
:1014600040E251E40E941702DC01CB01BC01CD0136
:101470000E944100DC01CB019AA389A30FC080E93F
:1014800091E098A38F8F8F8D98A10197F1F798A382
:101490008F8F89A19AA101979AA389A389A19AA163
:1014A000009769F714C06BA17CA18DA19EA10E9439
:1014B0004100DC01CB019AA389A389A19AA19E8F47
:1014C0008D8F8D8D9E8D0197F1F79E8F8D8F8CE086
:1014D0000E943A0880E090E0A0E8BFE3898F9A8FED
:1014E000AB8FBC8F698D7A8D8B8D9C8D20E030E029
:1014F0004AE755E40E941702DC01CB018D8B9E8BDD
:10150000AF8BB88F6D897E898F89988D20E030E010
:1015100040E85FE30E94710388232CF481E090E0AF
:101520009C8B8B8B3FC06D897E898F89988D20E045
:101530003FEF4FE757E40E94110318164CF5698DF1
:101540007A8D8B8D9C8D20E030E040E251E40E944A
:101550001702DC01CB01BC01CD010E944100DC017E
:10156000CB019C8B8B8B0FC080E991E09A8B898B90
:1015700089899A890197F1F79A8B898B8B899C8944
:1015800001979C8B8B8B8B899C89009769F714C082
:101590006D897E898F89988D0E944100DC01CB0185
:1015A0009C8B8B8B8B899C89988B8F878F85988957
:1015B0000197F1F7988B8F8781E00E943A0880E0CD
:1015C00090E0A0E0B0E48B879C87AD87BE876B85F9
:1015D0007C858D859E8520E030E04AE755E40E94B9
:1015E0001702DC01CB018F839887A987BA876F81A7
:1015F000788589859A8520E030E040E85FE30E94A5
:10160000710388232CF481E090E09E838D833FC09A
:101610006F81788589859A8520E03FEF4FE757E411
:101620000E94110318164CF56B857C858D859E856F
:1016300020E030E040E251E40E941702DC01CB01DF
:10164000BC01CD010E944100DC01CB019E838D8352
:101650000FC080E991E09C838B838B819C810197F3
:10166000F1F79C838B838D819E8101979E838D836F
:101670008D819E81009769F714C06F817885898577
:101680009A850E944100DC01CB019E838D838D8170
:101690009E819A83898389819A810197F1F79A8340
:1016A0008983E8960FB6F894DEBF0FBECDBFCF9109
:1016B000DF910895DF93CF9300D0CDB7DEB79A8343
:1016C00089830AC0E981FA8180810E94D8088981D2
:1016D0009A8101969A838983E981FA81808188239E
:1016E00089F70F900F90CF91DF9108950F931F937B
:1016F000DF93CF93CDB7DEB7C956D0400FB6F8947D
:10170000DEBF0FBECDBFFE01EA59FF4F608371837C
:10171000828393831982FE01EA59FF4F8081918170
:10172000A281B3810097A105B105D9F580E30E949C
:10173000D80837C08981082F10E0FE01EA59FF4F11
:1017400080819181A281B3812AE030E040E050E0C5
:10175000BC01CD010E94D50FDC01CB01282FCE01A9
:101760000296FC01E00FF11F20838E010A591F4FE2
:10177000FE01EA59FF4F80819181A281B3812AE065
:1017800030E040E050E0BC01CD010E94D50FDA010D
:10179000C901F80180839183A283B38389818F5F1C
:1017A0008983FE01EA59FF4F80819181A281B38133
:1017B0000097A105B10509F0BDCF12C08981882F1E
:1017C00090E09C0121503040CE010296FC01E20FD6
:1017D000F31F8081805D0E94D808898181508983B0
:1017E0008981882359F7C759DF4F0FB6F894DEBFB8
:1017F0000FBECDBFCF91DF911F910F910895DF9361
:10180000CF9300D00F92CDB7DEB78A836B838A81E6
:10181000882319F48B81898306C08A81813019F469
:101820008B81805C898389818068898389810E941A
:101830003A080F900F900F90CF91DF910895DF93AA
:10184000CF93CDB7DEB727970FB6F894DEBF0FBEA4
:10185000CDBF9C838B836D834E832F838D81882F97
:1018600090E0880F991F880F991F880F991F8A830E
:101870008A8180648A838A810E943A0819820EC014
:101880008981282F30E08B819C81FC01E20FF31FBE
:1018900080810E94D80889818F5F898389818830FF
:1018A00078F38E816F810E94FF0B8D810E94D80892
:1018B00027960FB6F894DEBF0FBECDBFCF91DF9154
:1018C0000895DF93CF93CDB7DEB7EAE3F0E08FEF73
:1018D0008083E7E3F0E08FEF8083E4E3F0E080EFE4
:1018E0008083E1E3F0E08FEF8083EBE3F0E08FEFC4
:1018F0008083E8E3F0E08FEF8083E5E3F0E08FEFB3
:101900008083E2E3F0E08FEF8083CF91DF91089551
:10191000DF93CF93CDB7DEB761970FB6F894DEBFF4
:101920000FBECDBF0E94610C0E947609188A82E02A
:10193000898B0E94110D80E090E0AAE7B4E48B87C8
:101940009C87AD87BE876B857C858D859E8520E0D5
:1019500030E04AE755E40E941702DC01CB018F8397
:101960009887A987BA876F81788589859A8520E0CD
:1019700030E040E85FE30E94710388232CF481E0AB
:1019800090E09E838D833FC06F81788589859A859D
:1019900020E03FEF4FE757E40E94110318164CF583
:1019A0006B857C858D859E8520E030E040E251E4AA
:1019B0000E941702DC01CB01BC01CD010E94410055
:1019C000DC01CB019E838D830FC080E991E09C8375
:1019D0008B838B819C810197F1F79C838B838D8115
:1019E0009E8101979E838D838D819E81009769F7EB
:1019F00014C06F81788589859A850E944100DC0139
:101A0000CB019E838D838D819E819A838983898179
:101A10009A810197F1F79A83898381E00E943A08BD
:101A200088CFDF93CF93CDB7DEB7EA970FB6F894A0
:101A3000DEBF0FBECDBF88E0FE013796DF01282F45
:101A40001D922A95E9F784E08F838EE0888785E1EF
:101A5000898784E08A87CE010F969AAB89ABA2E88A
:101A6000B0E0BCABABABBAE0BDABEBA9FCA900806E
:101A70002BA93CA92F5F3F4F3CAB2BABA9A9BAA91F
:101A80000C92E9A9FAA93196FAABE9ABFDA9F1509C
:101A9000FDAB2DA9222349F785E0FE017996DF01F0
:101AA000282F1D922A95E9F78BE2898F8DE28A8F84
:101AB0008AE28B8F8FE28C8FCE014E969FAB8EABDE
:101AC000A8E7B0E0B9AFA8AFBAE0BAAFE8ADF9ADFA
:101AD000008028AD39AD2F5F3F4F39AF28AFAEA999
:101AE000BFA90C92EEA9FFA93196FFABEEABFAAD00
:101AF000F150FAAF2AAD222349F71D821C821B82C6
:101B00001A8218A68D81282F30E0CE010F96FC0195
:101B1000E20FF31F8081805D0E94D8088C81282FFE
:101B200030E0CE014996FC01E20FF31F80810E9454
:101B3000D8088B81282F30E0CE014E96FC01E20FB1
:101B4000F31F8081805D0E94D808CE01079661E076
:101B500041E020E00E941F0C0E9485078E838E8149
:101B60008F3FD1F38E818F3FB9F38A81A82FB0E0E8
:101B7000B8ABAFA7EFA5F8A9E130F10509F46BC048
:101B80002FA538A9223031052CF48FA598A90097EC
:101B900071F0E2CFAFA5B8A9A230B10509F4AEC08B
:101BA000EFA5F8A9E330F10509F455C1D5CF8E8131
:101BB000282F30E03EA72DA78DA59EA58330910547
:101BC00009F1ADA5BEA5A430B10599F1EDA5FEA51D
:101BD000E230F10509F68D81893019F08D818F5F32
:101BE0008D8380E060E00E94FF0B8D81282F30E024
:101BF000CE010F96FC01E20FF31F8081805D0E94F1
:101C0000D808AACF8D81882319F08D8181508D83CA
:101C100080E060E00E94FF0B8D81282F30E0CE0134
:101C20000F96FC01E20FF31F8081805D0E94D808AF
:101C300093CF8A818F5F8A8381E060E00E94FF0BEF
:101C400080E20E94D808CE01079661E041E021E0E1
:101C50000E941F0C81CF8E81282F30E03CA72BA73C
:101C60008BA59CA58330910509F1ABA5BCA5A4303B
:101C7000B10591F1EBA5FCA5E230F10509F06CCFBF
:101C80008C81833019F08C818F5F8C8380E061E0E0
:101C90000E94FF0B8C81282F30E0CE014996FC0179
:101CA000E20FF31F80810E94D80856CF8C818823D1
:101CB00019F08C8181508C8380E061E00E94FF0BE1
:101CC0008C81282F30E0CE014996FC01E20FF31FF2
:101CD00080810E94D80840CF8A818F5F8A8381E00B
:101CE00061E00E94FF0B80E20E94D808CE010796B7
:101CF00061E041E022E00E941F0C2ECF8E81282F50
:101D000030E03AA729A789A59AA583309105B9F1B2
:101D1000A9A5BAA5A430B10509F448C0E9A5FAA55A
:101D2000E230F10509F018CF8B818930B9F08B8151
:101D3000282F30E0CE014E96FC01E20FF31F4081C8
:101D40008D81282F30E0CE010F96FC01E20FF31FAA
:101D50008081481718F48B818F5F8B8380E062E06D
:101D60000E94FF0B8B81282F30E0CE014E96FC01A4
:101D7000E20FF31F8081805D0E94D808EDCE8B8139
:101D8000882319F08B8181508B8380E062E00E9470
:101D9000FF0B8B81282F30E0CE014E96FC01E20F25
:101DA000F31F8081805D0E94D808D6CE8A818F5F24
:101DB0008A8381E062E00E94FF0B80E20E94D808E3
:101DC00080E063E00E94FF0B8DE30E94D8088D81C4
:101DD000282F30E0CE010F96FC01E20FF31F508157
:101DE0008B81282F30E0CE014E96FC01E20FF31FCD
:101DF00040818C81282F30E0CE014996FC01E20F12
:101E0000F31F90819E01285D3F4F852F642F492F3E
:101E10000E94640F89838981882F90E0A0E0B0E060
:101E2000BC01CD010E94760B88A5882361F08EE26B
:101E30000E94D80888A5882F90E0A0E0B0E0BC01FF
:101E4000CD010E94760BCE01079661E041E024E0CF
:101E50000E941F0C81CE8E81882F90E084309105E6
:101E600009F07ACE1A821D821C821B8281E00E94B8
:101E70003A088D81282F30E0CE010F96FC01E20F49
:101E8000F31F8081805D0E94D8088C81282F30E06C
:101E9000CE014996FC01E20FF31F80810E94D80811
:101EA0008B81282F30E0CE014E96FC01E20FF31F0C
:101EB0008081805D0E94D808CE01079661E041E0F4
:101EC00020E00E941F0C48CEDF93CF93CDB7DEB742
:101ED00028970FB6F894DEBF0FBECDBF89836A8303
:101EE0004B833D832C838B81282F30E038872F83D1
:101EF0008F8198858B329105B1F02F8138852C32F6
:101F0000310534F48F8198858A329105C1F036C04D
:101F10002F8138852D32310561F08F8198858F3280
:101F20009105A1F02BC099818A81292F280F2E833A
:101F300026C099818A81392F381B3E8320C0998120
:101F40008A81989F802D11248E8319C089819A815E
:101F5000692F0E94C90F892F882349F089819A81AE
:101F6000692F0E94C90F892FEC81FD8180838981AF
:101F70009A81692F0E94C90F8E8301C01E828E81B3
:101F800028960FB6F894DEBF0FBECDBFCF91DF917C
:101F90000895991B79E004C0991F961708F0961BC5
:101FA000881F7A95C9F780950895A1E21A2EAA1B79
:101FB000BB1BFD010DC0AA1FBB1FEE1FFF1FA217F9
:101FC000B307E407F50720F0A21BB30BE40BF50BF6
:101FD000661F771F881F991F1A9469F7609570957F
:101FE000809590959B01AC01BD01CF0108952F9282
:101FF0003F924F925F926F927F928F929F92AF9299
:10200000BF92CF92DF92EF92FF920F931F93CF93E5
:10201000DF93CDB7DEB7CA1BDB0B0FB6F894DEBF7C
:102020000FBECDBF09942A88398848885F846E84A2
:102030007D848C849B84AA84B984C884DF80EE80EC
:10204000FD800C811B81AA81B981CE0FD11D0FB6F5
:10205000F894DEBF0FBECDBFED010895F894FFCF19
:10206000000000000000000001020304050607084C
:10207000090A0B0C0D0E0F100001020304050607E0
:0C20800008090001020304050607080916
:00000001FF
